:100000000C9437010C945F010C945F010C945F0118
:100010000C945F010C945F010C945F010C948F0FA2
:100020000C945F010C945F010C945F010C94FD042F
:100030000C945F010C945F010C945F010C945F01C0
:100040000C9493100C945F010C94040F0C94DE0E2E
:100050000C945F010C945F010C945F010C945F01A0
:100060000C94DD100C945F01084AD73B3BCE016E27
:1000700084BCBFFDC12F3D6C74319ABD56833DDAFF
:100080003D00C77F11BED9E4BB4C3E916BAAAABE0E
:10009000000000803F072C7AA5BA6CC590DA3B932C
:1000A00065FC8BBC53F810FD3C5692834DBD879D7B
:1000B0003AB63DCBC9BF5BBE73DA0FC93F05A84C4A
:1000C000CDB2D44EB93836A9020C50B99186880801
:1000D0003CA6AAAA2ABE000000803F000102040834
:1000E00010204080010204081020010204081020A2
:1000F00000000000250028002B0004040404040470
:1001000004040202020202020303030303030200C7
:10011000000000240027002A000000000023002621
:10012000002900000000080002010000030407008D
:10013000000000000000004E414E494E495459490C
:100140004E46CDCCCC3D0AD7233C17B7D13877CC1F
:100150002B329595E6241FB14F0A00002041000084
:10016000C84200401C4620BCBE4CCA1B0E5AAEC53D
:100170009D7400407A10F35A00A0724E18090010C6
:10018000A5D4E80000E87648170000E40B5402000C
:1001900000CA9A3B000000E1F50500008096980037
:1001A000000040420F000000A08601000000102760
:1001B00000000000E80300000000640000000000F0
:1001C0000A00000000000100000000002C76D88822
:1001D000DC674F0823DFC1DFAE59E1B1B796E5E335
:1001E000E453C63AE651997696E8E6C28426EB894E
:1001F0008C9B62ED407C6FFCEFBC9C9F40F2BAA5EB
:100200006FA5F490055A2AF75C936B6CF9676DC182
:100210001BFCE0E40D47FEF520E6B500D0ED902E86
:100220000300943577050080841E080000204E0AE4
:10023000000000C80C333333330F986E1283114122
:10024000EF8D2114893BE65516CFFEE6DB18D184ED
:100250004B381BF77C1D901DA4BBE4242032847214
:100260005E228100C9F124ECA1E53D27C12A1124B9
:100270001FBECFEFD8E0DEBFCDBF11E0A0E0B1E000
:10028000E2EBFDE602C005900D92A03CB107D9F764
:1002900026E0A0ECB1E001C01D92AA3FB207E1F751
:1002A00011E0C7E3D1E004C02197FE010E94E42BD6
:1002B000C633D107C9F70E94CF1C0C94D7360C94D3
:1002C00000002F923F924F925F926F927F928F9297
:1002D0009F92AF92BF92CF92DF92EF92FF920F93D5
:1002E0001F93CF93DF93CDB7DEB72B970FB6F8945C
:1002F000DEBF0FBECDBF29013A011801870120E002
:1003000030E040E251E40E949C2C4B015C0120E073
:1003100030E040E251E4C301B2010E949C2CA501EF
:1003200094010E94FB2B69837A838B839C8321E059
:100330002B87C701FF0CAA0BBB0B8F839887A9875C
:10034000BA87EB856E2E712C061517050CF45DC06F
:10035000AB856A2F70E080E090E00E940D356B0164
:100360007C016F81788589859A850E940F359B0174
:10037000AC01C701B6010E949C2C6B017C01B1E06D
:100380006B1AB0EC7B0A660C771C660C771CF101CB
:10039000E60DF71DFE83ED83A7019601C701B601A7
:1003A0000E946E3529813A814B815C810E946E35B5
:1003B0002B013C0120E030E040E050ECC701B601E9
:1003C0000E946E3520E030E040E450E40E94FC2BB7
:1003D0009B01AC01C301B2010E946E359B01AC01CF
:1003E000C501B4010E94FC2B20E030E040E251E462
:1003F0000E946E35AD81BE816D937D938D939C93EC
:100400001397BB85BF5FBB879CCF2B960FB6F89425
:10041000DEBF0FBECDBFDF91CF911F910F91FF9037
:10042000EF90DF90CF90BF90AF909F908F907F9094
:100430006F905F904F903F902F9008950F931F9370
:10044000CF93DF93EC018B018FE991E00E94BC1602
:10045000BE01DD0F880B990B97FF03C00E94FF16AA
:1004600003C04AE00E94BE168BEA91E00E94BC16CF
:10047000C801DF91CF911F910F910C94A716CF93D4
:10048000DF93EC018C819D8182309105A1F01CF4F9
:10049000019739F035C08330910599F00497E1F068
:1004A0002FC088810E94360F892B51F51A8219823C
:1004B00082E090E023C088810E94360F892BB1F43E
:1004C00018C088810E94360F892BB1F489819A81E6
:1004D00001969A83898314C089819A81449710F088
:1004E00082E001C081E08B831A82198281E090E072
:1004F00005C083E090E002C084E090E09D838C839F
:10050000DF91CF91089545984498459A449A08956B
:10051000CF93C7B13C98449A459A96B1892F807180
:10052000459894FF05C00E948302C7B981E001C0CD
:10053000C7B9CF910895459A449A4498459808952B
:100540004F925F926F927F928F929F92AF92BF92E3
:10055000CF92DF92EF92FF920F931F93CF93DF938F
:10056000CDB7DEB7C057D1090FB6F894DEBF0FBEC6
:10057000CDBFCD57DF4FE880F980C358D040CB576F
:10058000DF4FA880B980C558D040F501812C912C4F
:100590008191882331F08532D9F78FEF881A980A34
:1005A000F7CFF70110828114910491F49701D501DE
:1005B000FD01EA19FB098D91882321F0F90181934E
:1005C0009F01F6CFEE0DFF1D1082612C712C99C09A
:1005D0008E0109571F4F612C712CC12CD12C82E345
:1005E000482E512CF501EC0DFD1D8081882309F466
:1005F00088C0E4E3F0E0EC0FFD1FE60DF71D853247
:1006000009F065C01082BE016C5C7F4FC7010E947B
:100610005C301CAAFFEFCF1ADF0AF501EC0DFD1DBF
:100620008081863691F1A4F4833609F440C0843683
:1006300009F061C0380182E0680E711C4AE0BE0119
:100640006F5F7F4FF801808191810E94BE3037C07B
:100650008C3659F0833709F04EC03801F2E06F0E46
:10066000711CF801608171812DC03801F4E06F0EBA
:10067000711CF80160817181828193812AE0AE0151
:100680004F5F5F4F0E94C9301AC03801F4E06F0E0F
:10069000711CF80160817181828193818E010959F9
:1006A0001F4F22E044E00E946E30B8010BC03801B9
:1006B000F2E06F0E711CF801808189831A82BE01FD
:1006C0006F5F7F4FC7010E945C30830114C080833D
:1006D000C3010196B2010E94BC2B3C01892B69F435
:1006E000A7961FAEA797BE016C5C7F4FC7010E9403
:1006F0005C301CAA02C0612C712CFFEFCF1ADF0AFC
:1007000071CFE4E3F0E0EC0FFD1FE60DF71D108262
:10071000BE016C5C7F4FC7010E945C30C401019632
:10072000C059DF4F0FB6F894DEBF0FBECDBFDF91CB
:10073000CF911F910F91FF90EF90DF90CF90BF90DE
:10074000AF909F908F907F906F905F904F900895A3
:100750000F931F93CF93DF93CDB7DEB7E8970FB614
:10076000F894DEBF0FBECDBF1F926F931F928F9381
:1007700081EA91E09F938F938E010F5F1F4F1F932C
:100780000F930E94A002B801CE01C3960E94920E60
:10079000BE016D5C7F4F84E090E00E941E02CE019E
:1007A000C3960E948D0E0FB6F894DEBF0FBECDBF6C
:1007B000E8960FB6F894DEBF0FBECDBFDF91CF91A4
:1007C0001F910F910895CF92DF92EF92FF920F93B6
:1007D0001F93CF93DF93EB017B0124E0E20EF11C2A
:1007E0008B016C01C61AD70AC601800F911F0E94A7
:1007F0002F36F80181938F01EE15FF05A9F7CE0181
:10080000DF91CF911F910F91FF90EF90DF90CF90EC
:1008100008950F931F93CF93DF93EC018B0118166C
:1008200019065CF481E491E00E94BC16CE010E949E
:1008300026178BEA91E00E94BC1689EA91E00E949B
:10084000BC16C801DF91CF911F910F910C94A71690
:10085000CF93DF93EC01181619065CF481E491E064
:100860000E94BC16CE010E9426178BEA91E00E94DE
:10087000BC168DEA91E00E94D9138EE391E0DF91DE
:10088000CF910C94D9130F931F93CF93DF938C01C7
:10089000EB01181619065CF481E491E00E94BC1685
:1008A000C8010E9426178BEA91E00E94BC1683E4DF
:1008B00091E00E94BC16BE0180E090E04AE00E94F8
:1008C000BE168EE391E0DF91CF911F910F910C94B2
:1008D000D9130C94C612EF92FF920F931F93CF93EC
:1008E000DF93CDB7DEB760970FB6F894DEBF0FBECB
:1008F000CDBF92EF980F8E3008F0892F87708064FB
:10090000FE013196BE016F5E7F4FAF0180937C0088
:1009100090917A00906490937A0090917A0096FD7D
:10092000FCCF209178009091790030E0392B219311
:100930003193E617F70751F720E030E060E0862FAB
:1009400090E0F901E80FF91F3797D4F4880F991F49
:100950008A01080F191FF801A081B18102967A015E
:10096000E80EF91EF701808191818A179B0730F408
:10097000F80191838083F701B183A0836F5FDFCF9C
:100980002F5F3F4F28303105C9F62F8138858D8183
:100990009E81820F931F29853A85820F931F2B8595
:1009A0003C85820F931F96958795969587956096BF
:1009B0000FB6F894DEBF0FBECDBFDF91CF911F9170
:1009C0000F91FF90EF90089560E086E00E945F0F26
:1009D00061E085E00C945F0F61E086E00E945F0FAC
:1009E00060E085E00C945F0F86E00E94360F21E006
:1009F000019709F020E0822F08951F920F920FB601
:100A00000F9211242F933F934F935F936F937F9394
:100A10008F939F93AF93BF93EF93FF9380913D028A
:100A200087FF05C0109285001092840016C02091A7
:100A30003D02022E000C330B8091800690E02817B7
:100A400039075CF430913D0226E03203F0011124B5
:100A5000E85CF94F808186FD15C080913D028F5F73
:100A600080933D0220913D02022E000C330B8091B9
:100A7000800690E02817390794F480913D028C306D
:100A800034F10DC030913D023203F0011124E85CD5
:100A9000F94F808160E08F730E945F0FDECF8091FD
:100AA000840090918500049680349C4918F480E479
:100AB0009CE905C0809184009091850004969093F4
:100AC0008900809388008FEF80933D02BDC03091F4
:100AD0003D0226E03203F0011124E85CF94F8581E4
:100AE000882309F487C030913D0240913D024203C2
:100AF000F0011124E85CF94F818192813203F00109
:100B00001124E85CF94F438154818417950768F5F7
:100B100040913D0230913D023203F0011124E85C26
:100B2000F94F818192814203D0011124A85CB94F11
:100B300015963C91830F911D9283818330913D02E4
:100B400040913D024203F0011124E85CF94F81819C
:100B500092813203F0011124E85CF94F4381548102
:100B60008417950708F446C02BC040913D02309190
:100B70003D023203F0011124E85CF94F818192813A
:100B80004203D0011124A85CB94F15963C91831BF8
:100B900091099283818330913D0240913D0242034D
:100BA000F0011124E85CF94F818192813203F00158
:100BB0001124E85CF94F4381548148175907D0F05C
:100BC00030913D0240913D024203F0011124E85C66
:100BD000F94F838194813203F0011124E85CF94FCD
:100BE0009283818330913D023203F0011124E85C4D
:100BF000F94F1582809184009091850030913D02DB
:100C000026E03203F0011124E85CF94F4181528162
:100C1000840F951F909389008093880030913D0246
:100C20003203F0011124E85CF94F808186FF0CC08B
:100C300030913D023203F0011124E85CF94F8081CC
:100C400061E08F730E945F0FFF91EF91BF91AF91B1
:100C50009F918F917F916F915F914F913F912F91D4
:100C60000F900FBE0F901F9018958F929F92AF928A
:100C7000BF92CF92DF92EF92FF920F931F93CF9389
:100C8000DF93CDB7DEB7C454D1090FB6F894DEBFF9
:100C90000FBECDBF8DE895E00E94220D892B09F48F
:100CA00057C08DE895E00E94000D8C010F3F8FEF3B
:100CB000180781F3C090C206D090C306E090C40626
:100CC000F090C506C701B6016F5F7F4F8F4F9F4FF2
:100CD0002091C8063091C9064091CA065091CB06B2
:100CE0000E94A6368090BE069090BF06A090C006D7
:100CF000B090C106681579058A059B0559F2809167
:100D0000C6069091C706FC01EC0DFD1D0083809185
:100D1000C2069091C306A091C406B091C506BC015D
:100D2000CD016F5F7F4F8F4F9F4F2091C80630914D
:100D3000C9064091CA065091CB060E94A636609320
:100D4000C2067093C3068093C4069093C506A2CFD3
:100D500090912A068091DF06992301F1823021F4D7
:100D60001092DF0662E005C0813031F41092DF0698
:100D700061E080E00E94A8038091D906823029F4C6
:100D80001092D90662E081E006C0813009F077C098
:100D90001092D90661E00E94A80371C08130F1F57C
:100DA0001092DF0680912B06823040F08230B1F540
:100DB00085E080932B060E94E40430C082E080939B
:100DC0002B0610922D0610922C06E091810686E0EB
:100DD0008E9FF0011124E85CF94F90819F7B9083F6
:100DE000E09184068E9FF0011124E85CF94F908118
:100DF0009F7B9083E09187068E9FF0011124E85C31
:100E0000F94F90819F7B9083E0918A068E9FF0013D
:100E10001124E85CF94F80818F7B80838091D90613
:100E2000823061F41092D90680912B06823038F519
:100E300010922D0610922C0684E015C08130F9F432
:100E40001092D90680912B06823081F038F08530DF
:100E5000B0F40E94E40410922B0611C010922D06EB
:100E600010922C0683E080932B0609C00E94F404A4
:100E7000882319F00E94E40402C00E94EC048091CF
:100E80002E0690912F06892B09F47CC00E948710B2
:100E900000913006109131062091320630913306D0
:100EA000AB01BC01401B510B620B730B80912E06F2
:100EB00090912F06A0E0B0E0481759076A077B071A
:100EC00008F460C00E94871060933006709331066A
:100ED00080933206909333060E941D18AE01475C42
:100EE0005F4FBE01635C7F4FCE018F5B9F4F0E94BF
:100EF000301783E00E9469049F938F937F936F93D1
:100F00008CAD8F938BAD8F938AAD8F9389AD8F937B
:100F100021968FAD21978F938FAD8F938EAD8F9349
:100F20008DAD8F9325968FAD25978F9324968FAD9A
:100F300024978F9323968FAD23978F9322968FAD0F
:100F400022978F9380EB91E09F938F938E010F5F99
:100F50001F4F1F930F930E94A002B801CE01C396AA
:100F60000E94920EBE016D5C7F4F83E090E00E9474
:100F70001E02CE01C3960E948D0E0FB6F894DEBFFE
:100F80000FBECDBF0E948710009134061091350628
:100F90002091360630913706DC01CB01801B910B86
:100FA000A20BB30BC297A105B10508F48AC00E9439
:100FB00087106093340670933506809336069093BD
:100FC000370690912B06933049F018F49230B1F027
:100FD00078C0943051F0953089F073C00E940916A2
:100FE00081116FC010922B0604C00E940916811156
:100FF00068C010922D0610922C0663C020912C061A
:1010000030912D062B3F8FEF380748F010922B06BA
:1010100010922D0610922C060E94C01352C02A3F37
:101020008FEF380709F444C0953009F441C0AE0190
:101030004D5C5F4FBE01675C7F4FCE01CD960E9435
:101040001D1469AD7AAD8BAD9CAD0E94152D6983E1
:101050006BA97CA98DA99EA90E94152D6A83219652
:101060006CAD7DAD8EAD9FAD21970E94152D6B832C
:1010700083E00E94C6120E94152D6C830E94F40426
:1010800091E0811101C090E09D83BE016F5F7F4FB1
:1010900080912C0690912D060E94EB1380912C06D6
:1010A00090912D06059690932D0680932C0609C0ED
:1010B0008FEF8983BE016F5F7F4FC9010E94EB13E1
:1010C000A5CF0E9487100091E2061091E3062091BF
:1010D000E4063091E506DC01CB01801B910BA20BED
:1010E000B30BC297A105B10590F00E9487106093E1
:1010F000E2067093E3068093E4069093E50686ED9E
:1011000096E00E943F028CED96E00E943F02CC5B8D
:10111000DF4F0FB6F894DEBF0FBECDBFDF91CF918A
:101120001F910F91FF90EF90DF90CF90BF90AF9005
:101130009F908F9008952F923F924F925F926F925F
:101140007F928F929F92AF92BF92CF92DF92EF9257
:10115000FF920F931F93CF93DF93CDB7DEB7C454A5
:10116000D1090FB6F894DEBF0FBECDBF69A77AA72D
:101170008BA79CA729AB3AAB4BAB5CABEDA6FEA60D
:101180000FA718ABADA2BEA2CFA2D8A620E030E038
:1011900040EF52EC0E94CA2D18162CF520E030E0EA
:1011A00040EF52E469A57AA58BA59CA50E9408355D
:1011B00087FF19C020E030E046E153E469A97AA92D
:1011C0008BA99CA90E94083587FF0DC020E030E064
:1011D0004AEA52E4C801B7010E94083587FF03C0FC
:1011E000F2E0DF2EC7C320E030E048EC51E46DA50B
:1011F0007EA58FA598A90E94083587FDF1CF20E034
:1012000030E0A9016DA17EA18FA198A50E940835AB
:1012100087FDE6CF20E030E048EC52E46DA17EA1EE
:101220008FA198A50E94083587FF42C06DA17EA1BD
:101230008FA198A50E940E2D9B01AC01AFEFB0E0ED
:101240000E94643623E630E040E050E00E944536DC
:1012500020938D0681E08F93CE0101964C01DE0133
:1012600015965D01FE0139966F01EDA4FEA40FA550
:1012700018A929A93AA94BA95CA969A57AA58BA5A2
:101280009CA50E947719D82E0F90F2E08F1709F4D1
:1012900071C3E980FA800B811C812D813E814F81D1
:1012A000588569857A858B859C850E94E21562C385
:1012B0008FEF80938D0619A21AA21BA21CA21D8E6D
:1012C0001E8E1F8E18A2198E1A8E1B8E1C8E1D8AC2
:1012D0001E8A1F8A188E198A1A8A1B8A1C8A1D86E2
:1012E0001E861F86188A19861A861B861C861D82F2
:1012F0001E821F82188619821A821B821C8281E03C
:101300008F93CE010D964C01DE0151965D01FE01D9
:1013100075966F01EDA4FEA40FA518A929A93AA9F5
:101320004BA95CA969A57AA58BA59CA50E947719F4
:101330000F90823009F454CF20E030E0A9016DA174
:101340007EA18FA198A50E940835811115C08FEF4D
:101350009FEF9093C3018093C201ED84FE840F85BB
:10136000188929893A894B895C896D897E898F8999
:10137000988D0E94E215B8C160908E0670908F061D
:1013800080909006909091066DAA7EAA8FAA98AE42
:1013900060909206709093068090940690909506C7
:1013A00021966CAE7DAE8EAE9FAE21976090960674
:1013B00070909706809098069090990625966CAE4E
:1013C0007DAE8EAE9FAE2597AE014F5F5F4FBE01E3
:1013D0006B5F7F4FCE0109960E9430172DA93EA961
:1013E0004FA958AD6D897E898F89988D0E94FB2BFE
:1013F0006B017C0120E030E0A9010E94CA2D26018A
:101400003701181624F077FA709477F870942196C3
:101410002CAD3DAD4EAD5FAD219769897A898B8941
:101420009C890E94FB2B4B015C0120E030E0A9016C
:101430000E94CA2D181624F0B7FAB094B7F8B094E9
:10144000A5019401C301B2010E94CA2D181684F4AB
:1014500020E030E0A901C701B6010E94CA2D18168C
:101460001CF4C701B60106C0C701B601905802C0FE
:10147000C501B4010E940E2D3B01072E000C880B04
:10148000990B0E940F354B015C0125962CAD3DADAB
:101490004EAD5FAD25976D857E858F8598890E94BD
:1014A000FB2B6B017C0120E030E0A9010E94CA2DDA
:1014B000181624F0F7FAF094F7F8F094A7019601C3
:1014C000C501B4010E94CA2D18162CF0C701B6013F
:1014D0000E940E2D3B01161417040CF008C1830165
:1014E0000D33110514F00CE310E069847A848B84C9
:1014F0009C8469AE7AAE8BAE9CAEA401930169A5C3
:101500007AA58BA59CA50E94FB2B2B013C012D816C
:101510003E814F81588569A97AA98BA99CA90E940F
:10152000FB2B4B015C0129813A814B815C816DA5CC
:101530007EA58FA598A90E94FB2B6B017C01A301BE
:101540009201C301B2010E946E352B013C01A5013D
:101550009401C501B4010E946E359B01AC01C30129
:10156000B2010E94FC2B4B015C01A7019601C7014F
:10157000B6010E946E359B01AC01C501B4010E9409
:10158000FC2B0E94E52D4B015C0120E030E048EC93
:1015900052E46DA17EA18FA198A50E94083587FF16
:1015A0003BC180E090E0A8ECB2E48DA39EA3AFA382
:1015B000B8A7B801012E000C880B990B0E940F35BB
:1015C0006B017C012DA13EA14FA158A5C501B4011D
:1015D0000E949C2C20E030E04AE754E40E946E35E3
:1015E000A70196010E949C2C0E94152D1B016531BC
:1015F000710508F023C138010D3311051CF06CE3AF
:10160000662E712C73010EE312E029A53AA54BA5B5
:101610005CA569AD7AAD8BAD9CAD0E9461016D8119
:101620007E818F8198850EE213E029A93AA94BA902
:101630005CA90E94610169817A818B819C810EE1A4
:1016400014E02DA53EA54FA558A90E946101EEE327
:10165000F2E0FEA3EDA38EE293E09AA789A71EA76E
:101660000DA7412C512C461457040CF410C1C30192
:101670000197880F991F880F991FFC01E25CFD4FAD
:101680004D895E896F89788D40835183628373832E
:10169000FC01E25DFC4F49895A896B897C89408352
:1016A000518362837383FC01E25EFB4F4D855E854F
:1016B0006F857889408351836283738330920F05ED
:1016C00020920E057092C1016092C0011092C30178
:1016D0001092C2010E94871060931005709311054B
:1016E0008093120590931305DD24D39402C044E047
:1016F000D42EAA24AA94BA2C8091C2019091C3013D
:1017000097FD38C12091C0013091C1018217930724
:101710000CF030C10E948710E091C201F091C3012A
:1017200000911005109111052091120530911305BB
:101730003B014C01601A710A820A930A60910E05FE
:1017400070910F05E69FA001E79F500DF69F500D89
:10175000112460E070E0641675068606970608F4AA
:1017600058C0CF01880F991F880F991FAC01425EA6
:101770005B4FBC01625D7C4F825C9D4F0E943318C1
:10178000823099F18091C2019091C301880F991F15
:10179000880F991FFC01E25EFB4FE080F18002811F
:1017A0001381FC01E25DFC4F208131814281538134
:1017B000FC01E25CFD4F60817181828193810E9416
:1017C000E215AE014F5F5F4FBE016B5F7F4FCE01F1
:1017D00009960E941D14AE014F5F5F4FBE016B5F03
:1017E0007F4FCE0109960E9430178091C2019091DF
:1017F000C30101969093C3018093C2012091C0015F
:101800003091C1018217930724F0B092C301A092D6
:10181000C2010E94350670CF20E030E04AE754E470
:101820006DA17EA18FA198A50E94CA2D18160CF05B
:10183000C0CE80E090E0AAE7B4E4B7CE80E090E0CC
:101840000E940D3520E030E040EA51E40E949C2CDB
:101850009B01AC01C701B6010E946E356B017C0192
:1018600020E030E040E752E40E94083587FF09C0DD
:10187000C701B6010E940E2D8B01E4E12E2E312C02
:10188000BACE74E1272E312C0CE310E0B4CEEDA5D6
:10189000FEA5E080F18002811381A9A5BAA52D9152
:1018A0003D914D915C91EDA1FEA16081718182819C
:1018B0009381F1E0FF93DE0159964D01FE017D9683
:1018C0005F0118966D010E9477190F90813041F5E4
:1018D00089A19AA1ABA1BCA1EDA1FEA18193919395
:1018E000A193B193FEA3EDA38D8D9E8DAF8DB8A175
:1018F000E9A5FAA581939193A193B193FAA7E9A7DA
:10190000898D9A8DAB8DBC8DEDA5FEA581939193AC
:10191000A193B193FEA7EDA7FFEF4F1A5F0AA3CEE5
:101920002D893E894F89588D73010EE312E06DA910
:101930007EA98FA998AD0E94610129893A894B89B6
:101940005C890EE213E021966CAD7DAD8EAD9FAD4E
:1019500021970E9461012D853E854F8558890EE1B2
:1019600014E025966CAD7DAD8EAD9FAD25970E94A0
:1019700061017DCE8D2DCC5BDF4F0FB6F894DEBFBD
:101980000FBECDBFDF91CF911F910F91FF90EF90D0
:10199000DF90CF90BF90AF909F908F907F906F908F
:1019A0005F904F903F902F900895CF92DF92EF92EB
:1019B000FF920F931F93CF93DF936C017A018B01FA
:1019C000C0E0D0E0CE15DF0589F0D8016D918D0122
:1019D000D601ED91FC910190F081E02DC6010995B1
:1019E000892B11F47E0102C02196ECCFC701DF9153
:1019F000CF911F910F91FF90EF90DF90CF900895BE
:101A0000FC01918D828D981761F0828DDF01A80F06
:101A1000B11D5D968C91928D9F5F9F73928F90E028
:101A200008958FEF9FEF0895FC01918D828D981797
:101A300031F0828DE80FF11D858D90E008958FEFD4
:101A40009FEF0895FC01918D228D892F90E0805C9D
:101A50009F4F821B91098F73992708958DE895E018
:101A60000E94220D21E0892B09F420E0822F0895A5
:101A7000FC01848DDF01A80FB11DA35ABF4F2C912B
:101A8000848D90E001968F739927848FA689B789FA
:101A90002C93A089B1898C9180648C93938D848DD3
:101AA000981306C00288F389E02D80818F7D8083A2
:101AB0000895EF92FF920F931F93CF93DF93EC0162
:101AC00081E0888F9B8D8C8D981305C0E889F989FA
:101AD000808185FD24C0F62E0B8D10E00F5F1F4F17
:101AE0000F731127E02E8C8DE8120CC00FB607FC87
:101AF000FACFE889F989808185FFF5CFCE010E9470
:101B0000380DF1CF8B8DFE01E80FF11DE35AFF4F29
:101B1000F0820B8FEA89FB898081806207C0EE89A1
:101B2000FF896083E889F98980818064808381E00E
:101B300090E0DF91CF911F910F91FF90EF9008956A
:101B4000CF93DF93EC01888D8823C9F0EA89FB8964
:101B5000808185FD05C0A889B9898C9186FD0FC05B
:101B60000FB607FCF5CF808185FFF2CFA889B98930
:101B70008C9185FFEDCFCE010E94380DE7CFDF912C
:101B8000CF91089580E090E0892B29F00E942E0DDE
:101B900081110C9400000895833081F028F4813085
:101BA00099F08230A1F008958730A9F08830B9F01B
:101BB0008430D1F4809180008F7D03C080918000BB
:101BC0008F7780938000089584B58F7702C084B5A5
:101BD0008F7D84BD08958091B0008F7703C0809180
:101BE000B0008F7D8093B00008953FB7F894809146
:101BF000880590918905A0918A05B0918B0526B53D
:101C0000A89B05C02F3F19F00196A11DB11D3FBF34
:101C1000BA2FA92F982F8827820F911DA11DB11DC2
:101C2000BC01CD0142E0660F771F881F991F4A95BE
:101C3000D1F7089585ED8093BC008091BC0084FDB0
:101C4000FCCF10925D05089540913705262F30E0B6
:101C5000240F311D21323105DCF420915D05243043
:101C6000C9F4FC0180E090E0861758F43091370504
:101C70002191DC01AB5EBA4FA30FB11D2C930196ED
:101C8000F3CF80913705680F6093370580E00895A2
:101C900081E0089582E0089508958FEF9FEF089501
:101CA0008FEF9FEF08958091140590E091958195B5
:101CB00091090895CF93DF9300D0CDB7DEB7CB0164
:101CC000642F49835A830E94240E4981842F5A81AC
:101CD000952F0F900F90DF91CF910895CF93DF93C1
:101CE0001F92CDB7DEB7698361E0CE0101960E94F5
:101CF000240E81E090E00F90DF91CF91089598E05D
:101D000087FF02C0449A01C04498880F459A4598BD
:101D10009150B1F708950E944E30FC01808191816D
:101D20000C94EC2EEF92FF920F931F93CF93DF93BF
:101D3000EC01198218821B821A821D821C82611595
:101D40007105A9F17B01FB0101900020E9F73197B2
:101D50008F01061B170BB8016F5F7F4F80E090E08B
:101D60000E94842F009759F0998388831B830A83EC
:101D70002C813D81232B81F4FC0110820DC08881D0
:101D80009981009711F00E94EC2E198218821D8211
:101D90001C821B821A820BC01D830C83B701DF914A
:101DA000CF911F910F91FF90EF900C946730DF91CE
:101DB000CF911F910F91FF90EF9008951F920F9276
:101DC0000FB60F9211242F933F934F935F936F930E
:101DD0007F938F939F93AF93BF93EF93FF938DE880
:101DE00095E00E94380DFF91EF91BF91AF919F91C7
:101DF0008F917F916F915F914F913F912F910F90B4
:101E00000FBE0F901F9018951F920F920FB60F9252
:101E100011242F938F939F93EF93FF93E0919D0550
:101E2000F0919E058081E091A305F091A40582FDCB
:101E300012C090818091A6058F5F8F732091A705B6
:101E4000821751F0E091A605F0E0E357FA4F958F25
:101E50008093A60501C08081FF91EF919F918F91A2
:101E60002F910F900FBE0F901F901895CF93DF9377
:101E7000282F30E0F901ED5DFE4F8491F901E45225
:101E8000FF4FD491F901E650FF4FC491CC2391F05C
:101E900081110E94CC0DEC2FF0E0EE0FFF1FE75EEA
:101EA000FE4FA591B491EC91ED2381E090E021F4F7
:101EB00080E002C080E090E0DF91CF9108951F9311
:101EC000CF93DF93282F30E0F901ED5DFE4F849131
:101ED000F901E452FF4FD491F901E650FF4FC4914C
:101EE000CC23C9F0162F81110E94CC0DEC2FF0E00D
:101EF000EE0FFF1FE051FF4FA591B4918FB7F894FB
:101F0000111105C09C91ED2FE095E92302C0EC91E1
:101F1000ED2BEC938FBFDF91CF911F9108951F920E
:101F20000F920FB60F9211242F933F934F935F930D
:101F30006F937F938F939F93AF93BF93EF93FF9391
:101F40008091C7019091C801A091C901B091CA01C7
:101F5000892B8A2B8B2B59F18091C401E091C5010B
:101F6000F091C6019081892780838091C70190916B
:101F7000C801A091C901B091CA01181619061A0624
:101F80001B060CF03DC08091C7019091C801A09143
:101F9000C901B091CA010197A109B1098093C70194
:101FA0009093C801A093C901B093CA0129C0809140
:101FB0000001EEE0F1E0E4919FEF90930001E13049
:101FC000B9F098F0E230C9F4909170009D7F909341
:101FD000700091E09093B0009091B100987F946070
:101FE0009093B1001092B30008C010926E0005C02B
:101FF00090916F009D7F90936F0060E00E945F0F53
:10200000FF91EF91BF91AF919F918F917F916F91D0
:102010005F914F913F912F910F900FBE0F901F90A6
:102020001895CF93DF9390E0FC01E452FF4F249189
:10203000FC01E650FF4F8491882361F190E0880F06
:10204000991FFC01E15FFE4FC591D491FC01E05165
:10205000FF4FA591B491611109C09FB7F894888191
:10206000209582238883EC912E230BC0623061F48B
:102070009FB7F8943881822F809583238883EC91D1
:102080002E2B2C939FBF06C08FB7F894E8812E2B80
:1020900028838FBFDF91CF9108958F929F92AF9247
:1020A000BF92CF92DF92EF92FF926B017C010E9470
:1020B000F50D4B015C01C114D104E104F104F1F010
:1020C0000E94F50DDC01CB0188199909AA09BB0909
:1020D000883E9340A105B10570F321E0C21AD108F2
:1020E000E108F10888EE880E83E0981EA11CB11C5F
:1020F000C114D104E104F10419F7DDCFFF90EF9092
:10210000DF90CF90BF90AF909F908F9008952FB7A2
:10211000F894609184057091850580918605909171
:1021200087052FBF08951F920F920FB60F921124AB
:102130002F933F938F939F93AF93BF938091840589
:1021400090918505A0918605B09187053091830512
:1021500023E0230F2D3720F40196A11DB11D05C0EA
:1021600026E8230F0296A11DB11D209383058093BD
:10217000840590938505A0938605B093870580918B
:10218000880590918905A0918A05B0918B050196EB
:10219000A11DB11D8093880590938905A0938A05A0
:1021A000B0938B05BF91AF919F918F913F912F91EC
:1021B0000F900FBE0F901F9018951F920F920FB6A1
:1021C0000F9211242F933F934F935F936F937F93BD
:1021D0008F939F93AF93BF93EF93FF938091B90039
:1021E000887F803609F49CC068F5883209F45BC0AA
:1021F00090F4803109F454C038F4882309F4F6C00F
:10220000883009F44DC0F6C0883109F44CC08032E2
:1022100009F45DC0EFC0803409F468C048F480332D
:1022200009F455C0883309F0E5C080935C05D8C037
:10223000803509F44FC0883509F45DC0883409F051
:10224000D9C0D6C0883909F4C7C0A8F4883709F4C2
:1022500067C038F4883609F463C0803709F460C079
:10226000C9C0883809F4B8C0803909F45FC0803823
:1022700009F0C0C05BC0803B09F486C038F4803AE6
:1022800009F466C0883A09F47FC0B4C0803C09F400
:10229000A7C0883C09F4A4C0883B09F48AC0AAC03E
:1022A0008091820510C090918105809180059817DA
:1022B00070F5E091810581E08E0F80938105F0E05B
:1022C000E05AFA4F80818093BB0085EC86C08093F2
:1022D0005C058EC0E091810581E08E0F80938105C1
:1022E0008091BB00F0E0E05AFA4F80839091810525
:1022F000809180056EC0E091810581E08E0F809312
:1023000081058091BB00F0E0E05AFA4F8083809114
:102310005F0581116DC081E080935E0584EA61C034
:1023200083E080935D0510925B05CFCF80915B05C4
:10233000803208F051C0E0915B0581E08E0F809300
:102340005B058091BB00F0E0E55CFA4F8083BDCF78
:1023500085EC8093BC0010925D0580915B05803216
:1023600030F4E0915B05F0E0E55CFA4F108260919B
:102370005B0570E0E0913905F0913A058BE395E05B
:10238000099510925B0536C084E080935D0510923C
:10239000380510923705E0913505F091360509951D
:1023A00080913705811105C081E080933705109237
:1023B0001505E091380581E08E0F80933805F0E037
:1023C000EB5EFA4F80818093BB009091380580913D
:1023D0003705981708F479CF85E88093BC000AC0C8
:1023E00085EC8093BC0010925D0504C010925C05E2
:1023F0000E941A0EFF91EF91BF91AF919F918F9123
:102400007F916F915F914F913F912F910F900FBEF0
:102410000F901F901895DF92EF92FF920F931F93EA
:10242000CF93DF931F92CDB7DEB78C01E62EF42E4B
:10243000D22E3D9A3C9A459A449A59830E949B0217
:102440008E2D0E947F0E0E9488025981882311F0F0
:1024500081E03DC0852F0E947F0E0E94880281117D
:10246000F7CF8F2D0E947F0E0E9488028111F0CF3E
:102470000E949B0281E08E0D0E947F0E0E948802C6
:102480008111E6CF2D2D4D2D50E02223E1F0FA01F0
:10249000E21BF109E00FF11F67B13C9838E090E0D2
:1024A000459A990F3499916045983150C9F767B9A9
:1024B0009083215041F097B13C9A4498459A4598B1
:1024C00097B9449AE2CF89830E94830289810F9051
:1024D000DF91CF911F910F91FF90EF90DF900895C2
:1024E000CF92DF92EF92FF920F931F93CF93DF93E0
:1024F00000D0CDB7DEB78C01F42EC22E3D9A3C9AA7
:10250000459A449A5A8369830E949B0289810E945A
:102510007F0E0E9488025A81882319F0DD24D3940B
:1025200029C0852F0E947F0E0E9488028111F6CF5C
:102530008F2D0E947F0E0E948802D82E8111EECF2F
:10254000EC2CF12CCC20A1F0F701EC19F109E00FF3
:10255000F11F80810E947F0ECA940E94880281111F
:10256000DDCF65E070E080E090E00E944D10EACFA2
:102570000E9483028D2D0F900F90DF91CF911F91BC
:102580000F91FF90EF90DF90CF900895CF92DF9260
:10259000EF92FF920F931F93CF93DF93CDB7DEB7E8
:1025A00028970FB6F894DEBF0FBECDBF082F10E0FE
:1025B0008330E1F48091BD0690E00E946B04A0E0BE
:1025C000B0E09C01AD012256310941095109A4EB4B
:1025D000B0E00E9464362AE631E040E050E00E941C
:1025E0004536CA01B9010E940F3536C0F801EF57D0
:1025F000F94F81AD90E00E946B046C011D821E8238
:102600001F82188619821A821B821C82BE016B5F90
:102610007F4F7801EE0CFF1CEE0CFF1CC7018A5B9C
:102620009F4F0E94E303BE016F5F7F4FC701C296B9
:102630000E94E303B601DD0C880B990B0E940F3555
:1026400029813A814B815C810E946E352D813E81CA
:102650004F8158850E94FC2B000F111F000F111F86
:10266000F801EF57F94F25A136A147A150A50E94C7
:10267000FB2B6B017C0120E030E0A9010E940835B2
:1026800087FD11C020E030E044E353E4C701B60108
:102690000E94CA2D181654F4C12CD12C84E3E82EC4
:1026A00083E4F82E03C0C12CD12C7601C701B601FA
:1026B00028960FB6F894DEBF0FBECDBFDF91CF9145
:1026C0001F910F91FF90EF90DF90CF9008950F939F
:1026D0001F93CF938C01C62FDC018C918C3008F0B6
:1026E00049C061E08C2F0E941110F801808196E0B2
:1026F000899FF0011124E85CF94FCF739081907CA1
:10270000C92BC0836CE00E94B02BACE08A9FA00173
:10271000112420E030E096E0B901640F751F969F08
:10272000F001979FF00D1124E85CF94F608166FD80
:1027300016C02F5F3F4F2C30310571F781110FC04C
:102740001092800082E080938100109285001092A8
:102750008400B19A80916F00826080936F00D801ED
:10276000EC91B6E0EB9FF0011124E85CF94F808119
:1027700080648083F8018081CF911F910F9108952B
:102780000F931F93CF93DF9306EB16E0C1E8D6E0DB
:10279000F80161918F0170E0CE010E9467132396CA
:1027A000F6E0CD38DF07A1F7DF91CF911F910F91B0
:1027B0000895009769F0FC0101900020E9F7319736
:1027C000AF01481B590BBC018DE895E00C94D50C6A
:1027D00080E090E00895EF92FF920F931F93CF93C4
:1027E000DF938C017B01D82FDF77DC37D0F0E0E876
:1027F000CE2FCD1B2C2FAC0160EAC7010E947012B6
:1028000065E070E080E090E00E944D108C2F90E039
:1028100025E82D0FAC01400F511F60EA8E0D9F1D62
:1028200004C025E0AC0160EAC701DF91CF911F91A0
:102830000F91FF90EF900C947012EF92FF920F9314
:102840001F93CF93DF937C018B01EA0180E00E940C
:10285000C612F701608371838283938381E00E94B3
:10286000C612F801608371838283938382E00E94A1
:10287000C612688379838A839B83DF91CF911F91EE
:102880000F91FF90EF9008952F923F924F925F9299
:102890006F927F92AF92BF92CF92DF92EF92FF92B0
:1028A0000F931F93CF93DF93C82F6A017B0120E022
:1028B00030E0A901C701B6010E94083587FD11C0AB
:1028C00020E030E044E353E4C701B6010E94CA2D82
:1028D000181654F4C12CD12CD4E3ED2ED3E4FD2EE4
:1028E00003C0C12CD12C7601D0E0FE01EE0FFF1FFA
:1028F000EE0FFF1FEF57F94FC586D686E786F08AA1
:1029000025A136A147A150A5C701B6010E94FC2B05
:102910006B017C01B0908D068E01000F111F20E02D
:1029200030E04AEF53E4BB2009F494C00E9408351C
:1029300087FF6BC020E030E040E251E4C701B60100
:102940000E946E351B012C0120E030E0A9010E949D
:10295000083587FD11C020E030E041EE54E4C201AB
:10296000B1010E94CA2D181654F4212C312C71EE9D
:10297000472E74E4572E03C0212C312C2101C801AD
:102980008C0F9D1F9C012F57394F3901F90181810F
:102990002DE730E06901C81AD10887FDD394CC0C2B
:1029A000DD1CCC0CDD1C0D2C000CEE08FF08C20158
:1029B000B1010E940E2D9B01AC01F301628181E700
:1029C00092E0861B910967FD9395880F991F880FE8
:1029D000991F092E000CAA0BBB0BBC01CD016C1971
:1029E0007D098E099F090E94A02B28E037E040E076
:1029F00050E00E944536CA01B9016C0D7D1D8E1D47
:102A00009F1D0E940F356B017C01C00FD11FCF5756
:102A1000D94FC881CC3008F0C4C01FB7F894F6E095
:102A2000CF9FE0011124C85CD94F20E030E040E89E
:102A300051E4C701B6010E946E3520E030E040E06D
:102A40005EE30E946E350E94152D7C836B83BD82F0
:102A50001FBFA7C00E94083587FF69C020E030E093
:102A6000A901C701B6010E94083587FD11C020E009
:102A700030E044E353E4C701B6010E94CA2D1816A2
:102A800054F4C12CD12CB4E3EB2EB3E4FB2E03C0E1
:102A9000C12CD12C7601C8018C0F9D1F9C012F5792
:102AA000394F5901F90181812DE730E02901481A98
:102AB000510887FD5394440C551C440C551C052C9F
:102AC000000C6608770820E030E040E251E4C701DE
:102AD000B6010E946E350E940E2D9B01AC01F501DE
:102AE000628181E792E0861B910967FD9395880FCB
:102AF000991F880F991F092E000CAA0BBB0BBC0154
:102B0000CD0164197509860997090E94A02B28E058
:102B100037E040E050E00E944536CA01B901640D3B
:102B2000751D861D971D0E940F356B017C01C00F1E
:102B3000D11FCF57D94F18811C3098F5C701B60166
:102B40000E940E2D29814DE750E0FA01E21BF109A8
:102B500027FDF395AF01440F551F440F551F641710
:102B6000750784F04A8121E732E0241B310947FDD3
:102B70003395220F331F220F331FAB012617370760
:102B80000CF4A901CA010297880F991F2FB7F89476
:102B900036E0139FF0011124E85CF94F92838183A2
:102BA0002FBFDF91CF911F910F91FF90EF90DF909A
:102BB000CF90BF90AF907F906F905F904F903F907D
:102BC0002F9008958F929F92AF92BF92CF92DF92F3
:102BD000EF92FF920F931F9349015A016701780109
:102BE000AB01BC0180E00E944414B501A40181E066
:102BF0000E944414B701A60182E01F910F91FF903B
:102C0000EF90DF90CF90BF90AF909F908F900C94FB
:102C10004414CF92DF92EF92FF920F931F93CF93C2
:102C2000DF93CDB7DEB729970FB6F894DEBF0FBE9E
:102C3000CDBFE0902C06F0902D060E2D0F770C37AF
:102C4000F8F080E8182F101B212FA70160EACE01B1
:102C500001960E940B1265E070E080E090E00E9417
:102C60004D10812F90E025E8200FAC014E0D5F1D27
:102C700060EAE1E0F0E0EC0FFD1F8E0F9F1F05C042
:102C800025E0A70160EACE0101960E940B1219818E
:102C90001F3F09F43FC06A8170E080E090E00E942D
:102CA0000D356B017C01612F70E080E090E00E94A7
:102CB0000D359B01AC018B81682F70E080E090E0C6
:102CC0002E833F83488759870E940D3587017601FF
:102CD0002E813F81488559850E94E2156C8170E004
:102CE00080E090E00E940D35AB01BC0183E00E94C2
:102CF00044140E94F4049D8121E0811101C020E070
:102D0000291761F0992319F00E94EC0407C00E9472
:102D1000E40404C00E94E40480E00AC080912C0610
:102D200090912D06059690932D0680932C0681E0B8
:102D300029960FB6F894DEBF0FBECDBFDF91CF91BD
:102D40001F910F91FF90EF90DF90CF900895CF9358
:102D5000DF93FC0144815581608171818DE895E0AC
:102D60000E94D50CEC018EE391E00E94D9138C0FE8
:102D70009D1FDF91CF9108950C94D9138F929F924C
:102D8000AF92BF920F931F93CF93DF93CDB7DEB770
:102D9000A1970FB6F894DEBF0FBECDBF19A2423087
:102DA00008F44AE08E010F5D1F4F842E912CA12C58
:102DB000B12CA50194010E94A636E62FB901CA01E3
:102DC00001501109EA3014F4E05D01C0E95CD8015A
:102DD000EC93232B242B252B61F7C8010E94D913D8
:102DE000A1960FB6F894DEBF0FBECDBFDF91CF9195
:102DF0001F910F91BF90AF909F908F900895CF92A9
:102E0000DF92EF92FF92CF93DF936B017C01E09111
:102E10008D05F0918E050190F081E02D6DE28DE839
:102E200095E00995EC0166277727CB016C197D09A0
:102E30008E099F094AE00E94BE168C0F9D1FDF91EC
:102E4000CF91FF90EF90DF90CF900895BC01990F44
:102E5000880B990B97FD0C94FF164AE00C94BE1654
:102E60002F923F924F925F926F927F928F929F929A
:102E7000AF92BF92CF92DF92EF92FF920F931F9388
:102E8000CF93DF9300D000D000D0CDB7DEB78C0158
:102E90001B015E834D8326EE3EE245E652E46091DF
:102EA00092067091930680919406909195060E94E7
:102EB0009C2C4B015C010E94972C2B013C0126EEBF
:102EC0003EE245E652E46091960670919706809145
:102ED0009806909199060E949C2C6B017C010E949F
:102EE000972C69837A838B839C8320E030E444E1D0
:102EF00053E4C301B2010E946E352B013C0123E370
:102F000033E340E253E469817A818B819C810E94A2
:102F10006E359B01AC01C301B2010E94FC2B29E27A
:102F20003CE549EA51E40E94FC2B20E030E048EC0B
:102F300051E40E94FC2B2B013C01C501B4010E940D
:102F4000D72D4B015C01C701B6010E94D72D6B0143
:102F50007C0126EE3EE245E652E460918E067091D9
:102F60008F0680919006909191060E949C2C0E9461
:102F7000972C9B01AC01C301B2010E946E35F80190
:102F8000608371838283938326EE3EE245E652E4BA
:102F900060918E0670918F068091900690919106B7
:102FA0000E949C2C0E94D72D9B01AC01C301B20151
:102FB0000E946E35F101608371838283938320E0E8
:102FC00030E444E153E4C501B4010E946E354B0185
:102FD0005C0123E333E340E253E4C701B6010E94FE
:102FE0006E359B01AC01C501B4010E94FB2B26E6A6
:102FF00036EE46ED52E40E94FC2BED81FE816083AB
:1030000071838283938381E026960FB6F894DEBFA6
:103010000FBECDBFDF91CF911F910F91FF90EF9029
:10302000DF90CF90BF90AF909F908F907F906F90E8
:103030005F904F903F902F9008950F931F93CF93E1
:103040000EE816E0C0E08C2F0E94C612F8016193D2
:103050007193819391938F01CF5FC430A1F7CF918A
:103060001F910F9108952F923F924F925F926F920E
:103070007F928F929F92AF92BF92CF92DF92EF9208
:10308000FF921F93CF93DF93CDB7DEB728970FB68C
:10309000F894DEBF0FBECDBF9E838D831B01588782
:1030A0004F83DC018D909D90AD90BC90A501940163
:1030B000C501B4010E94292E811120C0F101C080F8
:1030C000D180E280F380A7019601C701B6010E947A
:1030D000292E811113C0AF81B8858D919D910D90DE
:1030E000BC91A02D89839A83AB83BC839C01AD01E5
:1030F000BC01CD010E94292E882311F012E068C086
:103100002091AA063091AB064091AC065091AD06D5
:10311000C701B6010E94FC2B2B013C0120E030E0EE
:1031200040EA50E40E94083587FDC0C020E030E04E
:1031300040EF52E4C301B2010E94CA2D18160CF4EC
:10314000B5C02091AE063091AF064091B0065091C7
:10315000B10669817A818B819C810E94FC2B2B01B5
:103160003C0120E030E040EA50E40E94083587FD51
:103170009DC020E030E040EF52E4C301B2010E9464
:10318000CA2D18160CF492C0A701960160E070E0F9
:1031900084E393E40E94FB2B29813A814B815C817B
:1031A0000E94FB2B6B017C0120E030E046E153E400
:1031B0000E94CA2D18160CF479C020E030E040EFD0
:1031C00051E4C701B6010E94083587FD6FC011E0C8
:1031D00020E030E0A901C501B4010E94083587FD57
:1031E00011C020E030E044E353E4C501B4010E9483
:1031F000CA2D181654F4812C912C24E3A22E23E41A
:10320000B22E03C0812C912C5401ED81FE8180826D
:103210009182A282B382D1018D909D90AD90BC909D
:1032200020E030E0A901C501B4010E94083587FD06
:1032300011C020E030E044E353E4C501B4010E9432
:10324000CA2D181654F4812C912C94E3A92E93E4E2
:10325000B92E03C0812C912C5401F10180829182FE
:10326000A282B382AF81B8858D909D90AD90BC90C5
:1032700020E030E0A901C501B4010E94083587FDB6
:1032800011C020E030E044E353E4C501B4010E94E2
:10329000CA2D18166CF4812C912C84E3A82E83E49B
:1032A000B82E06C0812C912C540102C01AE090CF98
:1032B000EF81F88580829182A282B382812F289645
:1032C0000FB6F894DEBF0FBECDBFDF91CF911F9137
:1032D000FF90EF90DF90CF90BF90AF909F908F9036
:1032E0007F906F905F904F903F902F9008952F9216
:1032F0003F924F925F926F927F928F929F92AF9286
:10330000BF92CF92DF92EF92FF920F931F93CF93D2
:10331000DF93CDB7DEB72B970FB6F894DEBF0FBEA5
:10332000CDBF2B013C0129833A834B835C83ED8223
:10333000FE820F8318878601BA86A986140188A1A8
:103340008B8720E030EC4CE455ECC301B2010E94C5
:10335000083587FD12C020E030EC4CE455E4C30191
:10336000B2010E94CA2D18167CF4412C80EC582E14
:103370008CE4682E85E4782E07C0412C90EC592E01
:103380009CE4692E95EC792E20E030EC4CE455EC71
:1033900069817A818B819C810E94083587FD11C0EB
:1033A00020E030EC4CE455E469817A818B819C818A
:1033B0000E94CA2D18166CF480E090ECACE4B5E4E1
:1033C00004C080E090ECACE4B5EC89839A83AB83D5
:1033D000BC8320E030EC4CE455EC6D817E818F8124
:1033E00098850E94083587FD11C020E030EC4CE440
:1033F00055E46D817E818F8198850E94CA2D1816B3
:103400006CF480E090ECACE4B5E404C080E090ECB7
:10341000ACE4B5EC8D839E83AF83B88720E030E0C9
:1034200040E251E46D817E818F8198850E946E35E6
:103430000E940E2D072E000C880B990B0E940F3551
:1034400020E030E040E251E40E949C2C4B015C0102
:1034500020E030E042E853E40E94CA2D18160CF434
:10346000A0C120E030E040EF52ECC501B4010E9461
:10347000083587FD96C120E030E040E251E46981E3
:103480007A818B819C810E946E350E940E2D072EC1
:10349000000C880B990B0E940F3520E030E040E2D1
:1034A00051E40E949C2C6B017C0126E636EE46ED31
:1034B00052E4C501B4010E94FB2B20E030E444E15A
:1034C00053E40E949C2C4B015C019B85911109C027
:1034D00020E030E0A901C701B6010E94083587FD50
:1034E00060C120E030E040E251E4C301B2010E943B
:1034F0006E350E940E2D072E000C880B990B0E9432
:103500000F3520E030E040E251E40E949C2C2B017A
:103510003C0120E030E0A9010E94083581110AC079
:1035200080E090E0A4EBB2E4F80180839183A28371
:10353000B3833FC020E030E0A901C301B2010E9483
:10354000CA2D1816A4F4A3019201C701B6010E9466
:103550009C2C0E94682C26EE3EE245E652E40E9436
:103560006E35D8016D937D938D939C93139720E0D6
:1035700030E0A901C301B2010E94083587FF19C0DC
:10358000A3019201C701B6010E949C2C0E94682CE5
:1035900026EE3EE245E652E40E946E3520E030E041
:1035A00044E353E40E94FC2BF8016083718382831F
:1035B0009383D8018D919D910D90BC91A02D89830D
:1035C0009A83AB83BC8320E030E044EB52E4BC013F
:1035D000CD010E9408358823B9F026EE3EE245E68B
:1035E00052E469817A818B819C810E949C2C0E948B
:1035F000972C9B01AC01C301B2010E949C2C29E2D3
:103600003CE549EA51E406C029E23CE549EA51E4D7
:10361000C701B6010E94FB2B20E030E048EC51E4EA
:103620000E94FB2B20E030E444E153E40E949C2CF8
:103630006B017C019B01AC01C501B4010E949C2C73
:103640000E94682C26EE3EE245E652E40E946E356A
:103650002B013C01A5019401C501B4010E946E3506
:103660004B015C01A7019601C701B6010E946E35AE
:103670009B01AC01C501B4010E94FC2B0E94E52D09
:103680006B017C019B01AC010E946E354B015C011A
:1036900023E937E745E95FE30E94FC2B20E030E0B7
:1036A00040E85FE30E94FB2B69837A838B839C83D2
:1036B00025E531E54AE050E4C701B6010E946E35C8
:1036C0009B01AC0169817A818B819C810E949C2C39
:1036D0000E94EA2B26EE3EE245E652E40E946E3559
:1036E000F101608371838283938320E030E040E8BE
:1036F0005FE3C501B4010E94FC2B23E937E745E9EC
:103700005FE30E94FB2B4B015C01A7019601C701FF
:10371000B6010E94FC2B9B01AC01C501B4010E94C3
:103720009C2C0E94EA2B26EE3EE245E652E40E94E3
:103730006E35A30192010E94FC2BA985BA856D9379
:103740007D938D939C931397A3019201F101608166
:103750007181828193810E94FB2BD1016D937D93B6
:103760008D939C931397A10169857A85C8012B9647
:103770000FB6F894DEBF0FBECDBFDF91CF911F9182
:103780000F91FF90EF90DF90CF90BF90AF909F9000
:103790008F907F906F905F904F903F902F900C9400
:1037A000331882E02B960FB6F894DEBF0FBECDBF64
:1037B000DF91CF911F910F91FF90EF90DF90CF900D
:1037C000BF90AF909F908F907F906F905F904F9041
:1037D0003F902F9008952F923F924F925F926F9259
:1037E0007F928F929F92AF92BF92CF92DF92EF9291
:1037F000FF920F931F93CF93DF93CDB7DEB72C9734
:103800000FB6F894DEBF0FBECDBF1C017E836D8363
:1038100058874F8309871A872B873C8726EE3EE21D
:1038200045E652E4C701B6010E949C2C2B013C01E5
:103830000E94972C69837A838B839C8326EE3EE2D9
:1038400045E652E4C501B4010E949C2C6B017C0149
:103850000E94972C4B015C0120E030E444E153E4EA
:1038600069817A818B819C810E946E3569837A831C
:103870008B839C8323E333E340E253E4C501B4012B
:103880000E946E359B01AC0169817A818B819C819C
:103890000E94FC2B29E23CE549EA51E40E94FC2B02
:1038A00020E030E048EC51E40E94FC2B4B015C012D
:1038B000C301B2010E94D72D2B013C01C701B60103
:1038C0000E94D72D69837A838B839C8326EE3EE208
:1038D00045E652E469857A858B859C850E949C2CFF
:1038E0006B017C010E94972C9B01AC01C501B401C6
:1038F0000E946E35F1016083718382839383C701D7
:10390000B6010E94D72D9B01AC01C501B4010E94F4
:103910006E35ED81FE81608371838283938320E025
:1039200030E444E153E4C301B2010E946E356B01FF
:103930007C0123E333E340E253E469817A818B81A4
:103940009C810E946E359B01AC01C701B6010E94AB
:10395000FB2B26E636EE46ED52E40E94FC2BEF816F
:10396000F885608371838283938381E02C960FB600
:10397000F894DEBF0FBECDBFDF91CF911F910F91A5
:10398000FF90EF90DF90CF90BF90AF909F908F907F
:103990007F906F905F904F903F902F900895CF93BE
:1039A000DF93CDB7DEB7CC56D1090FB6F894DEBFA2
:1039B0000FBECDBF789484B5826084BD84B581602C
:1039C00084BD85B5826085BD85B5816085BD8091EA
:1039D0006E00816080936E00109281008091810062
:1039E000826080938100809181008160809381005A
:1039F000809180008160809380008091B10084601C
:103A00008093B1008091B00081608093B00080917C
:103A10007A00846080937A0080917A00826080933B
:103A20007A0080917A00816080937A0080917A0098
:103A3000806880937A001092C100E0919D05F0911A
:103A40009E0582E08083E0919905F0919A051082AD
:103A5000E0919B05F0919C0580E180831092A50583
:103A6000E091A105F091A20586E08083E0919F0599
:103A7000F091A005808180618083E0919F05F091A5
:103A8000A005808188608083E0919F05F091A0056A
:103A9000808180688083E0919F05F091A0058081FE
:103AA0008F7D808362E084E00E94111061E083E0FA
:103AB0000E94111062E082E00E94111062E087E033
:103AC0000E94111061E086E00E94111061E089E01F
:103AD0000E94111061E085E00E94111084E0809343
:103AE000DC0681E090E09093E1068093E00627E019
:103AF0002093D6069093DB068093DA0683E08093CA
:103B0000CC068AE999E9A9EBBFEB8093A6069093CE
:103B1000A706A093A806B093A90680E090E0A0EEC7
:103B2000B0E48093AA069093AB06A093AC06B09342
:103B3000AD0680E090E0A0E8B0E48093AE069093FC
:103B4000AF06A093B006B093B1061092B2061092E1
:103B5000B3061092B4061092B5063EE9E32E36E0A5
:103B6000F32E00E010E09E012F5F3F4F29016AE035
:103B700070E080E090E00E944D10A8014C505E4E35
:103B800022E062EAC2010E940B12898190E0982F24
:103B900088272A81820F911DD7018D939D937D01E6
:103BA0001C5F0115BCE01B0711F7109282061092F2
:103BB000830610928506109286061092880610924F
:103BC000890687EE80938B0689E180938C060E949C
:103BD000C01380E00E94C61260938E0670938F0619
:103BE000809390069093910681E00E94C6126093A4
:103BF000920670939306809394069093950682E0C4
:103C00000E94C6126093960670939706809398065A
:103C10009093990683E00E94C61260939A0670936F
:103C20009B0680939C0690939D068FEF9FEF909349
:103C3000C3018093C2019093C1018093C00110928F
:103C4000BE061092BF061092C0061092C1061092D6
:103C5000C2061092C3061092C4061092C5068BECE1
:103C600091E09093C7068093C60680E390E0A0E0C1
:103C7000B0E08093C8069093C906A093CA06B0939B
:103C8000CB06A12CB12C88ECC82E82E4D82EE12CD6
:103C9000F12C06E113E4A801970160E070E0CB018C
:103CA0000E949B088BE391E00E94D9138EE391E080
:103CB0000E94D9138091BE069091BF06A091C006C4
:103CC000B091C1060091C2061091C3062091C406AE
:103CD0003091C50680179107A207B30729F40E9407
:103CE00035060E94C20DE6CFE091C606F091C706E8
:103CF000E80FF91F1081BC01CD016F5F7F4F8F4F1F
:103D00009F4F2091C8063091C9064091CA06509134
:103D1000CB060E94A6366093BE067093BF068093C2
:103D2000C0069093C10680913B0290913C0200979F
:103D3000A1F4133239F0173429F01D3419F010357D
:103D400009F0B8CF81E090E090933C0280933B0271
:103D5000133269F0809339020CC0019709F08EC0CC
:103D6000E0913A02E03308F089C0133241F4109236
:103D7000390281E080933A02109309029BCF1734F5
:103D800021F01D3411F0103561F480913902811158
:103D9000F0CF81E0809339028E0F80933A02F0E0F9
:103DA00029C08E2F90E01A3009F5FC01E75FFD4F26
:103DB0001082E9E0F2E001900020E9F78F01015064
:103DC0001109C80189509240181619060CF056C006
:103DD000F80182918F01082E000C990B0E94D734B4
:103DE000892B09F450C0D8011C92EBCFEF5FE09310
:103DF0003A02FC01E75FFD4F10835CCF06301105EE
:103E0000E9F0CF0101960115110509F052C0E1104A
:103E100001C0F0800E948E306BAB7CAB8DAB9EAB53
:103E20006BEA71E080E090E00E949230FC010F5F4D
:103E30001F4F24E0C20ED11C309701F76BA97CA95B
:103E40008DA99EA9EE2009F448C00E940E2D1B01E9
:103E50006FA978AD89AD9AAD0E940E2DC801029769
:103E600022E030E04DE4F41609F493C2A0E5FA161E
:103E700011F40C945C28B7E4FB16C1F110923C02DB
:103E800010923B0217CFEE24E39480910902833213
:103E900009F0E12C6BEA71E089E092E00E94923037
:103EA000FC019E012D5C3F4F6901F12C00E010E008
:103EB000C3CF0130110549F4E110F0800E948E302B
:103EC0006FAB78AF89AF9AAFABCF0E948E30F6015F
:103ED0006083718382839383A3CF0E940E2DC801D8
:103EE000019721E030E0212C312CBCCF3901660C48
:103EF000771C660C771CE3E3F0E0EC0FFD1F6E0E01
:103F00007F1E693C710589F124F4672B61F00C94E4
:103F1000542A6A3C710509F487C06C3C710509F4A8
:103F2000C0C10C94542A049711F00C943F28D3017B
:103F30001C96AD90BD90CD90DC901F971896ED909B
:103F4000FD900D911C911B9714962D913D914D91D3
:103F50005C9117976D917D918D919C910E949B082A
:103F6000823011F40C943D28C8C0049711F00C94D1
:103F70003F28D3018D919D910D90BC91A02DA196CC
:103F80008CAF9DAFAEAFBFAFA19726EE3EE245E648
:103F900052E4F30164817581868197810E949C2C93
:103FA0006B017C010E94972CA5966CAF7DAF8EAF04
:103FB0009FAFA597C701B6010E94D72D9B01AC0109
:103FC000D3011C96AD90BD90CD90DC901F971896B4
:103FD0008D919D910D90BC91A02DA9968CAF9DAF18
:103FE000AEAFBFAFA997A1966CAD7DAD8EAD9FADC5
:103FF000A1970E946E353B014C01A5962CAD3DADBD
:104000004EAD5FADA597A1966CAD7DAD8EAD9FAD6C
:10401000A1970E946E35A996ECACFDAC0EAD1FAD1C
:10402000A997A40193019ACF029711F00C943F280D
:10403000F301F4816E96FFAF6E97D3011596BC9194
:10404000A296BFAFA297F301F681A696FFAFA697FF
:10405000D3011796BC91AA96BFAFAA97F3016081CE
:104060007181828193810E94152DAB966FAFAB97C2
:10407000643010F00C943F2820E030E044E353E437
:104080006E966FAD6E97A2967FADA297A6968FADF6
:10409000A697AA969FADAA970E94CA2D181614F447
:1040A0000C943F2820E030E0A9016E966FAD6E972A
:1040B000A2967FADA297A6968FADA697AA969FAD22
:1040C000AA970E94083587FF02C00C943F28AB9640
:1040D000FFADAB97F330A9F46E964FAD6E97A296F5
:1040E0005FADA297A6966FADA697AA967FADAA9749
:1040F000AB968FADAB970E944414C1010E94280477
:10410000BDCE80E00E94690481E00E94690482E0E3
:104110000E946904AB962FADAB97213031F122306C
:1041200009F445C081E00E946904362F272F182F1B
:10413000092F82E0AC962FAFAC97AD963FAFAD970D
:104140000E9469046E965FAD6E97A2964FADA297DE
:10415000A6966FACA697AA967FACAA97AC962FAD01
:10416000AC97AD963FADAD9747C080E00E94690423
:10417000562F472F3C0182E0AD964FAFAD97AC96DE
:104180005FAFAC970E9469046E963FAD6E97A296A2
:104190002FADA297A6961FADA697AA960FADAA9788
:1041A000AD964FADAD97AC965FADAC9725C080E0B6
:1041B0000E946904562F472F3C0181E0AD964FAF16
:1041C000AD97AC965FAFAC970E946904362F272F4E
:1041D000182F092F6E966FAD6E97A2967FADA2979E
:1041E000A6968FADA697AA969FADAA97AC965FADFF
:1041F000AC97AD964FADAD974B015C01C32ED22E5F
:10420000E12EF02E052F142F9301AE014F5F5F4F6B
:10421000BE01655B7F4FCE018F5A9F4F0E94EB1B03
:104220006596CCACDDACEEACFFAC659720E030E041
:1042300040EF52ECC701B6010E94CA2D181624F5B2
:1042400020E030E040EF52E4C701B6010E9408359B
:1042500087FF1AC020E030E046E153E42F966CADB2
:104260007DAD8EAD9FAD2F970E94083587FF0CC0A6
:1042700020E030E04AEA52E469817A818B819C81B6
:104280000E94083587FDFBC620E030E048EC51E491
:1042900069817A818B819C810E94083587FDEFC6F8
:1042A0001BCF049709F0EBC6D3011C96AD90BD90CF
:1042B000CD90DC901F9718968D919D910D90BC919B
:1042C000A02DA5968CAF9DAFAEAFBFAFA597D30184
:1042D00014968D919D910D90BC91A02DA1968CAFBF
:1042E0009DAFAEAFBFAFA197F301608071808280B8
:1042F0009380A201BE01655B7F4FCE018F5A9F4F15
:104300000E94301765962CAD3DAD4EAD5FAD659703
:10431000C401B3010E94FC2B3B014C0165966CAFBC
:104320007DAF8EAF9FAF65972F962CAD3DAD4EAD57
:104330005FAD2F97A1966CAD7DAD8EAD9FADA19772
:104340000E94FC2BA1966CAF7DAF8EAF9FAFA19763
:104350002F966CAF7DAF8EAF9FAF2F9729813A819B
:104360004B815C81A5966CAD7DAD8EAD9FADA59763
:104370000E94FC2B69837A838B839C837B018C0155
:10438000A1962CAD3DAD4EAD5FADA197C401B3017B
:10439000E5CD3901660C771C660C771C23E330E011
:1043A0002C0F3D1F620E731E653D710509F4C0C4DC
:1043B000D4F46A3C710509F466C04CF468377105A1
:1043C00079F1693C710509F440C00C94542A633DAD
:1043D000710509F499C20CF0B7C3623D710509F487
:1043E00073C00C94542A6E3D710509F49AC554F4B7
:1043F0006C3D710509F4B2C46D3D710509F422C527
:104400000C94542A683E710509F408C6603F710592
:1044100009F417C6673E710511F00C94542AE9C5DA
:10442000019709F02CC620E030E04AE754E4D301BC
:104430006D917D918D919C910E946E350E94152DFC
:1044400070932F0660932E0658CE019709F017C679
:10445000F30160817181828193810E94152D643006
:1044600008F00BC6862F90E0FC01EF57F94F65A9C5
:1044700070E09C01220F331F820F931F8F57994FBB
:104480000E9467133ACE019709F0F9C5D3016D91E7
:104490007D918D919C910E94152D643008F0EDC5A1
:1044A00070E0FB01EE0FFF1F6E0F7F1FFB01EF5748
:1044B000F94FE081B6E0EB9FF0011124E85CF94F81
:1044C00080818F7B808319CE029709F0D8C520E0C8
:1044D00030E04AE754E4F301648175818681978175
:1044E0000E946E350E94152DA1966CAF7DAF8EAFE8
:1044F0009FAFA197D3016D917D918D919C910E9469
:10450000152DA9966CAF7DAF8EAF9FAFA997A196E1
:104510008CAD9DADAEADBFADA197892B8A2B8B2BFA
:1045200009F4EBCD81E08093CD0661E08091CC066B
:104530000E941110A1968CAD9DADAEADBFADA197FF
:104540008093D2069093D306A093D406B093D50659
:104550000E9487106093CE067093CF068093D0069A
:104560009093D1068091CC0690910001981304C0DD
:10457000EEE0F1E0149180C09F3F09F0BECD809342
:104580000001EEE0F1E014911F3F09F4B6CD1130C7
:1045900029F1123009F449C011116EC014BC15BCC8
:1045A00094B5926094BD95B5916095BD282F30E08B
:1045B000F901E650FF4FE491F0E0EE0FFF1FE051EC
:1045C000FF4F45915491509300024093FF01F90130
:1045D000E452FF4FE491E093FE0150C0109280003E
:1045E0001092810090918100986090938100909149
:1045F0008100916090938100282F30E0F901E6500E
:10460000FF4FE491F0E0EE0FFF1FE051FF4F4591A7
:1046100054915093FD014093FC01F901E452FF4F86
:10462000E491E093FB0111E029C01092B0001092D8
:10463000B1009091B00092609093B0009091B10061
:1046400091609093B100282F30E0F901E650FF4FC0
:10465000E491F0E0EE0FFF1FE051FF4F45915491C0
:104660005093C6014093C501F901E452FF4FE49114
:10467000E093C40112E002C017FD3FCD61E00E944B
:104680001110A796AEADBFADA7974D01A12CB12CCF
:10469000812F8D7F09F0BEC060E072E18AE790E073
:1046A000A50194010E944536A5962CAF3DAF4EAFB3
:1046B0005FAFA59769017A01B1E0CB1AD108E10893
:1046C000F108EFEFCE16D104E104F10409F008F48B
:1046D0004BC060E472E48FE090E0A50194010E9479
:1046E000453669017A01F1E0CF1AD108E108F108F5
:1046F000123001F52FEFC216D104E104F10409F0E4
:1047000008F43DC760E970ED83E090E0A5019401F5
:104710000E94453669017A0181E0C81AD108E10892
:10472000F1089FEFC916D104E104F10409F0E0F5A6
:1047300083E069C0AFEFCA16D104E104F104B1F01F
:10474000A8F068E478EE81E090E0A50194010E9471
:10475000453669017A01B1E0CB1AD108E108F108C8
:10476000112309F4B0C602C781E001C082E0111133
:104770004AC015C0A5968CAD9DADAEADBFADA59799
:104780002AE0B595A795979587952A95D1F76C015D
:104790007D0141E0C41AD108E108F10885E095B532
:1047A000987F892B85BD65C068E478EE81E090E054
:1047B000A50194010E94453669017A0181E0C81A79
:1047C000D108E108F1089FEFC916D104E104F10412
:1047D00009F008F476C664E274EF80E090E0A50189
:1047E00094010E94453669017A01E1E0CE1AD108B0
:1047F000E108F108FFEFCF16D104E104F10411F054
:1048000008F083C685E09091B100987F892B809352
:10481000B1002FC060E072E18AE790E0A501940149
:104820000E94453669017A0181E0C81AD108E10881
:10483000F108C114D10491E0E906F10488F068E4BC
:1048400078EE81E090E0A50194010E94453669016F
:104850007A01A1E0CA1AD108E108F10893E001C089
:1048600091E0113031F480918100887F892B809311
:104870008100A796AEADBFADA797AA0FBB1FA196AB
:104880002CAD3DAD4EAD5FADA1970E94643628EED4
:1048900033E040E050E00E94A636113099F012302B
:1048A00019F111112ACCC7BC2093050230930602DE
:1048B000409307025093080280916E0082608093BB
:1048C0006E001BCCD0928900C09288002093010218
:1048D00030930202409303025093040280916F00D0
:1048E000826080936F0009CCC092B3002093C7010F
:1048F0003093C8014093C9015093CA018091700060
:10490000826080937000F9CB039709F0B8C3F3017C
:1049100060857185828593850E940E2D162F862FC6
:10492000972F6F969FAF8EAF6F97D30114966D91AF
:104930007D918D919C9117970E94152D6B017C01A3
:10494000F30160817181828193810E940E2D062F77
:10495000613009F44AC028F0623009F0B5C032EA8B
:1049600047C0123069F0143019F1113009F03FC01E
:10497000C6010E942F36682F70E080E090E011C0E1
:104980001A821982C6010E942F368983C6010196B8
:104990000E942F368A8369817A81072E000C880B4A
:1049A000990B0E940F35962E872E782E692E1BC0EC
:1049B00019821A821B821C825E01F5E0AF0EB11CC7
:1049C0003201460184189508C401860D971D0E9486
:1049D0002F36D3018D933D01AA15BB05A9F7998008
:1049E0008A807B806C8030E007C030EA01C030E014
:1049F000912C812C712C612C0150023008F06DC07B
:104A0000123049F0143059F0113009F061C0AA2475
:104A1000A394B12C07C002E0A02EB12C03C0B4E0D7
:104A2000AB2EB12C2C2D2F77422F50E081E890E057
:104A30008A199B0948175907FCF000E8021B202F30
:104A4000A601632FC201AD963FAFAD970E940B1236
:104A500065E070E080E090E00E944D10802F90E0D3
:104A60002A2D201BAC014C0D5D1DAD963FADAD97C1
:104A7000632F840D951D04C02A2DA601632FC2014A
:104A80000E940B12123059F01430C9F0113029F580
:104A9000698170E080E090E00E940D350DC0698171
:104AA00070E0762F66278A81680F711D072E000C33
:104AB000880B990B0E940F35962E872E10C0998077
:104AC0008A807B806C8009C0912C812C80EB03C094
:104AD000912C812C88EA91E402C0872D962D6F9647
:104AE000EEADFFAD6F97E230F10531F0E430F10546
:104AF000C9F0319709F089C4A401652F782D0E946F
:104B00000E2D7F936F9385EA91E09F938F935F9231
:104B10004F920E94A0020F900F900F900F900F9055
:104B20000F9073C49F938F938F929F9285E491E02F
:104B30009F938F935F924F920E94A0020FB6F894BA
:104B4000DEBF0FBECDBF61C4049709F098C2D30188
:104B500014966D917D918D919C9117970E94152DC2
:104B6000062FB72EF301C484D584E684F7846085CC
:104B70007185828593850E940E2D162F6E960FAF3C
:104B80006E976F96BFAE6F97D3016D917D918D91AA
:104B90009C910E940E2DA2966FAFA297613009F4EE
:104BA00062C030F0623009F0A8CAE2EABE2E5FC0EF
:104BB000123071F0143089F1113009F057C0C7017B
:104BC000B6010E94152D802F9B2D0E9437364EC0B6
:104BD000C701B6010E940E2D7A836983602E7B2C5B
:104BE00052014E01B3E08B0E911CF50161915F0102
:104BF000C301AC966FAFAC970E942F36AC966FADE9
:104C0000AC97681719F0C3010E943736FFEF6F1A8F
:104C10007F0AA814B90449F729C0C982DA82EB8255
:104C2000FC82602E7B2C9E012F5F3F4F59014E016D
:104C300035E0830E911CD5016D915D01C301AC96E9
:104C40006FAFAC970E942F36AC966FADAC976817DC
:104C500019F0C3010E943736BFEF6B1A7B0AA81404
:104C6000B90449F703C070EAB72E01C0B12CA2966F
:104C70008FADA2978150823008F03FCA123071F098
:104C80001430B1F0113009F038CAC701B6010E94E2
:104C9000152D6983EE24E394F12C11C0C701B601F0
:104CA0000E940E2D79836A8352E0E52EF12C07C015
:104CB000C982DA82EB82FC8244E0E42EF12C0F7789
:104CC000202F30E081E890E08E199F0928173907DE
:104CD00024F110E8101B212F6F964EAD5FAD6F973A
:104CE0006B2DCE0101960E94701265E070E080E0AD
:104CF00090E00E944D10812F90E02E2D211B6F9689
:104D00004EAD5FAD6F97480F591F6B2DE1E0F0E09E
:104D1000EC0FFD1F8E0F9F1F08C02E2D6F964EADFE
:104D20005FAD6F976B2DCE0101960E947012E5C9A1
:104D3000019709F0A4C120E030E0A901D3016D91F1
:104D40007D918D919C910E940835882319F01092D5
:104D50002A06D3C981E080932A06CFC9039709F0B8
:104D60008EC1F301E084F1840285138524813581AD
:104D7000468157816081718182819381E1E0EF9367
:104D8000DE01AF5ABF4F4D01FE01EB5AFF4F5F01ED
:104D900018966D010E9477196A967FAD6A976B9697
:104DA0006FAD6B976C969FAD6C976D968FAD6D9751
:104DB000272F362F492F582FC901DA01F30180839D
:104DC0009183A283B3836696BFAD66976796AFADB6
:104DD000679768969FAD689769968FAD69976B2FB7
:104DE0007A2F6C01CB01AD2DBC2D84839583A683D6
:104DF000B7836296BFAD62976396AFAD63976496D3
:104E00009FAD649765968FAD65978D017C01812F6D
:104E1000902FAF2DBE2D80879187A287B387EF9209
:104E2000FF920F931F93CF92DF927F936F935F93C5
:104E30004F933F932F9389E491E09F938F935F92D9
:104E40004F929CC2039709F01AC1D30118968D9016
:104E50009D90AD90BC901B971496CD90DD90ED90F9
:104E6000FC9017970D911D912D913C91AE014F5AD9
:104E70005F4FBE016B5A7F4FCE01875A9F4F0E94F2
:104E8000EB1B6A967FAD6A976B966FAD6B976C96CE
:104E90009FAD6C976D968FAD6D97272F362F492F4D
:104EA000582FC901DA01F30180839183A283B38370
:104EB0006696BFAD66976796AFAD679768969FADEC
:104EC000689769968FAD69976B2F7A2F6C01CB012C
:104ED000AD2DBC2D84839583A683B7836296BFAD29
:104EE00062976396AFAD639764969FAD649765963E
:104EF0008FAD65978D017C01812F902FAF2DBE2D39
:104F000080879187A287B387EF92FF920F931F93B9
:104F1000CF92DF927F936F935F934F933F932F9343
:104F2000B6C1049709F0ABC020E030E040E85FE391
:104F3000D3011C966D917D918D919C911F970E943C
:104F4000083581112EC0F301C080D180E280F3804A
:104F500026EE3EE245E652E46481758186819781C2
:104F60000E949C2C4B015C010E94972C9B01AC0180
:104F7000C701B6010E946E35D3016D937D938D9369
:104F80009C931397C501B4010E94D72D9B01AC01DE
:104F9000C701B6010E946E35F30164837583868371
:104FA0009783D3011896ED90FD900D911C911B975E
:104FB00014962D913D914D915C9117976D917D9136
:104FC0008D919C911F924201FE01E55BFF4F5F01B5
:104FD000DE01AF5ABF4F6D010E9477190F908230EA
:104FE00009F46CC28A3009F469C2813009F00DC23B
:104FF00007C2019709F043C020E030E0A901F301A6
:1050000060817181828193810E940835811103C082
:105010000E94E40472C80E94EC046FC8019779F5FD
:1050200020E030E0A901D3016D917D918D919C919B
:105030000E940835811102C061E001C060E089E092
:1050400019C00297E1F4F30160817181828193813B
:105050000E94152D162FD30114966D917D918D917F
:105060009C9117970E94152D662311F061E001C0F5
:1050700060E0812F0E945F0F40C81AE001C015E177
:1050800081E491E00E94BC16C1010E9426178BEAC0
:1050900091E00E94BC1683E491E00E94BC16612F4F
:1050A00070E080E090E04AE00E94BE168EE391E05E
:1050B0000E94D9130C943E1F3901660C771C660CB4
:1050C000771CE3E3F0E0EC0FFD1F6E0E7F1E6C3DDE
:1050D000710509F49FC0C4F46A3C710509F484C0E9
:1050E00044F4683C710559F1693C710509F476C0D6
:1050F000DBC16C3C710509F47DC00CF47BC06D3CD8
:10510000710509F481C0D0C1683E710509F459C127
:105110004CF46D3D710509F4BDC0673E710509F49D
:1051200047C1C2C1603F710509F482C1613F710589
:1051300009F48BC1693E710509F0B6C158C1892BCC
:1051400009F0B5C180E00E946904D3016D937D939D
:105150008D939C93139781E00E946904F30164830B
:1051600075838683978382E00E946904D301189631
:105170006D937D938D939C931B9783E00E946904AC
:105180009B01AC01CB01DA01F30184879587A687E7
:10519000B7875F934F933F932F9383858F93828538
:1051A0008F9381858F9380858F9387818F9386815D
:1051B0008F9385818F9384818F9383818F93828155
:1051C0008F9381818F9380818F9387E691E09F9366
:1051D0008F935F924F920E94A002D2C0892B09F058
:1051E00066C187E791E00BC0892B09F060C183E8B5
:1051F00091E005C0892B09F05AC181E891E09F93A5
:105200008F938DE791E031C1892B09F050C167E898
:1052100071E0F8C0892B09F04AC10E941D18A30152
:10522000485F5F4FB3016C5F7F4FC3010E9430172F
:10523000D3011B968C911B978F931A968C911A977A
:105240008F9319968C9119978F9318968C91189724
:105250008F9317968C9117978F9316968C9116971C
:105260008F9315968C9115978F9314968C91149714
:105270008F9313968C9113978F9312968C9112970C
:105280008F9311968C9111978F938C918F9385E5C5
:1052900091E070C0892B09F00AC10E941D18A2017B
:1052A000BE01655B7F4FCE018F5A9F4F0E94301722
:1052B000F0918E066E96FFAF6E9720918F06A296A4
:1052C0002FAFA297009190061091910665966CAD54
:1052D0007DAD8EAD9FAD65972F96CCACDDACEEACC1
:1052E000FFAC2F979B01AC010E946E354B015C0116
:1052F000A7019601C701B6010E946E359B01AC0162
:10530000C501B4010E94FC2B0E94E52D9B01AC015C
:10531000CB01DA01F30180839183A283B3836E967C
:105320006FAD6E97A2967FADA297D02EC12ECB0106
:10533000A02FB12F84839583A683B783B981AA81D7
:105340009B818C818D017C01812F902FAF2DBE2DF3
:1053500080879187A287B387EF92FF920F931F9365
:10536000CF92DF927F936F935F934F933F932F93EF
:1053700083E991E09F938F935F924F920E94A002E6
:10538000B201CE01855B9F4F0E94920EBE01655B0C
:105390007F4FC1010E940904CE01855B9F4F0E948F
:1053A0008D0E0FB6F894DEBF0FBECDBF0C943E1F1E
:1053B000892B09F07CC00E94F404882309F47EC084
:1053C0001FC0892B09F073C089E00E94360F019736
:1053D00049F084E190E00E946B048935924024F406
:1053E00082E003C080E001C081E01F923BC0892BB6
:1053F00009F05DC082E00E94360F892B09F45EC07F
:1054000061E671E0C2010E946730B201CE01855BA6
:105410009F4F0E94920EBE01655B7F4FC1010E94AB
:105420000904CE01855B9F4F0E948D0E0C943E1F98
:105430000197E9F5D3016D917D918D919C910E9429
:10544000152D862F0E94360F0CC0019781F5F301B0
:1054500060817181828193810E94152DCB010E9410
:105460006B049F938F9385EA91E09F938F935F9254
:105470004F920E94A002B201CE01855B9F4F0E9415
:10548000920EBE01655B7F4FC1010E940904CE01EF
:10549000855B9F4F0E948D0E0F900F900F900F9085
:1054A0000F900F900C943E1F64E170E002C065E124
:1054B00070E0C1010E9443040C943E1F64E671E059
:1054C000A1CF84E0A0C9EFEFCE16D104E104F1042E
:1054D000D1F0C8F062E17AE780E090E0A5019401A4
:1054E0000E94453669017A01A1E0CA1AD108E10893
:1054F000F108BFEFCB16D104E104F10411F008F07C
:1055000039C984E04CC983E04AC962E17AE780E0A6
:1055100090E0A50194010E94453669017A01F1E00D
:10552000CF1AD108E108F1082FEFC216D104E10427
:10553000F104D1F0C8F0A5968CAD9DADAEADBFAD78
:10554000A5972AE0B595A795979587952A95D1F7C0
:105550006C017D0121E0C21AD108E108F108112394
:1055600009F41CC987E04FC986E001C93FEFC316A3
:10557000D104E104F10409F040F684E0F8C882E0C7
:1055800042C91092900510928F0588EE93E0A0E03A
:10559000B0E08093910590939205A0939305B0930A
:1055A00094052FE131E030938E0520938D0525EC95
:1055B00030E030939A052093990524EC30E0309345
:1055C0009C0520939B0520EC30E030939E052093B2
:1055D0009D0521EC30E03093A00520939F0522EC3F
:1055E00030E03093A2052093A10526EC30E0309303
:1055F000A4052093A3051092A6051092A70510926A
:10560000A8051092A9051092E9061092E806809369
:10561000EA069093EB06A093EC06B093ED068FE2BA
:1056200091E09093E7068093E60610922A06109286
:105630002B0610922D0610922C0610922F06109217
:105640002E060E9487106093300670933106809377
:105650003206909333060E9487106093340670934D
:105660003506809336069093370680918006E1E8F0
:10567000F6E09FEF26E048EB5BE08C3060F480833F
:10568000289FD0011124A85CB94F12965C934E93C9
:1056900011978F5F01C09083339636E0ED38F307A2
:1056A00061F7809380068FEF80938D0690E1EBE0A9
:1056B000F1E0AEE8B6E001900D929A95E1F798E03E
:1056C000EEE9F6E0DF011D929A95E9F724EB30E070
:1056D00030939F0620939E069BE09093B6069DE034
:1056E0009093B7069CE09093B8069AE09093B90621
:1056F00092E09093BA061092BB0691E09093BC069C
:1057000093E09093BD061092CD068093DC06109234
:10571000E1061092E0061092DF068093D606109202
:10572000DB061092DA061092D9060E948710609369
:10573000E2067093E3068093E4069093E5060895ED
:10574000DB018F939F930E946436BF91AF91A29F1C
:10575000800D911DA39F900DB29F900D112408956F
:10576000991B79E004C0991F961708F0961B881FB3
:105770007A95C9F78095089597FB072E16F4009443
:1057800007D077FD09D00E94D02B07FC05D03EF44E
:10579000909581959F4F0895709561957F4F0895DD
:1057A000AA1BBB1B51E107C0AA1FBB1FA617B70747
:1057B00010F0A61BB70B881F991F5A95A9F7809563
:1057C0009095BC01CD010895EE0FFF1F0590F49157
:1057D000E02D09949F939F770E94442D0F90002005
:1057E00042F49058A2EA2AED3FE049E450E40E94D6
:1057F000132C0C94F5355058BB27AA270E94132C64
:105800000C94F5350E94E73538F00E94EE3520F013
:1058100039F49F3F19F426F40C94E4350EF4E09526
:10582000E7FB0C94DE35E92F0E94063658F3BA17D1
:10583000620773078407950720F079F4A6F50C94A6
:1058400028360EF4E0950B2EBA2FA02D0B01B901CE
:1058500090010C01CA01A0011124FF27591B99F0E6
:10586000593F50F4503E68F11A16F040A22F232FF2
:10587000342F4427585FF3CF469537952795A79542
:10588000F0405395C9F77EF41F16BA0B620B730BE9
:10589000840BBAF09150A1F0FF0FBB1F661F771F5A
:1058A000881FC2F70EC0BA0F621F731F841F48F40F
:1058B000879577956795B795F7959E3F08F0B0CF98
:1058C0009395880F08F09927EE0F9795879508957F
:1058D000DF93DD27B92FBF7740E85FE31616170681
:1058E00048075B0718F4D92F0E94CF2D9F938F9301
:1058F0007F936F930E94252EE8E6F0E00E94642DCE
:105900000E94F5352F913F914F915F910E94813513
:10591000DD2351F09058A2EA2AED3FE049EC5FE325
:10592000D0785D270E94132CDF910C94F5350E94EE
:105930008D2DE3950C94B62D0E94B02C0C94F5356A
:105940000E94EE3558F00E94E73540F029F45F3FA1
:1059500029F00C94DE3551110C9429360C94E43561
:105960000E94063668F39923B1F3552391F3951BF2
:10597000550BBB27AA2762177307840738F09F5F70
:105980005F4F220F331F441FAA1FA9F335D00E2EDD
:105990003AF0E0E832D091505040E695001CCAF74A
:1059A0002BD0FE2F29D0660F771F881FBB1F26170D
:1059B00037074807AB07B0E809F0BB0B802DBF01E4
:1059C000FF2793585F4F3AF09E3F510578F00C94B3
:1059D000DE350C9429365F3FE4F3983ED4F3869588
:1059E00077956795B795F7959F5FC9F7880F911DD4
:1059F0009695879597F90895E1E0660F771F881FC0
:105A0000BB1F621773078407BA0720F0621B730B72
:105A1000840BBA0BEE1F88F7E09508950E94152DB0
:105A20006894B1110C94293608950E940E3688F0BE
:105A30009F5798F0B92F9927B751B0F0E1F0660F52
:105A4000771F881F991F1AF0BA95C9F714C0B13093
:105A500091F00E942836B1E008950C942836672F03
:105A6000782F8827B85F39F0B93FCCF386957795C2
:105A70006795B395D9F73EF49095809570956195AB
:105A80007F4F8F4F9F4F0895DF93CF931F930F93B7
:105A90008B01EC01E5E9F0E00E94642D0E94F535F0
:105AA0009801AE018B01EC0160E070E080E89FE3BB
:105AB0000E94FB2B0E94E52D9801AE010F911F91D2
:105AC000CF91DF910C948135DF93CF931F930F9388
:105AD000FF92EF92DF927B018C01689406C0DA2E70
